{
  "contractName": "Escrow",
  "abi": [
    {
      "inputs": [
        {
          "internalType": "address",
          "name": "_buyer",
          "type": "address"
        },
        {
          "internalType": "address payable",
          "name": "_seller",
          "type": "address"
        },
        {
          "internalType": "uint256",
          "name": "_price",
          "type": "uint256"
        }
      ],
      "stateMutability": "nonpayable",
      "type": "constructor"
    },
    {
      "inputs": [],
      "name": "buyer",
      "outputs": [
        {
          "internalType": "address",
          "name": "",
          "type": "address"
        }
      ],
      "stateMutability": "view",
      "type": "function",
      "constant": true
    },
    {
      "inputs": [],
      "name": "buyerIsIn",
      "outputs": [
        {
          "internalType": "bool",
          "name": "",
          "type": "bool"
        }
      ],
      "stateMutability": "view",
      "type": "function",
      "constant": true
    },
    {
      "inputs": [],
      "name": "currentState",
      "outputs": [
        {
          "internalType": "enum Escrow.State",
          "name": "",
          "type": "uint8"
        }
      ],
      "stateMutability": "view",
      "type": "function",
      "constant": true
    },
    {
      "inputs": [],
      "name": "price",
      "outputs": [
        {
          "internalType": "uint256",
          "name": "",
          "type": "uint256"
        }
      ],
      "stateMutability": "view",
      "type": "function",
      "constant": true
    },
    {
      "inputs": [],
      "name": "seller",
      "outputs": [
        {
          "internalType": "address payable",
          "name": "",
          "type": "address"
        }
      ],
      "stateMutability": "view",
      "type": "function",
      "constant": true
    },
    {
      "inputs": [],
      "name": "sellerIsIn",
      "outputs": [
        {
          "internalType": "bool",
          "name": "",
          "type": "bool"
        }
      ],
      "stateMutability": "view",
      "type": "function",
      "constant": true
    },
    {
      "inputs": [],
      "name": "contractInit",
      "outputs": [],
      "stateMutability": "nonpayable",
      "type": "function"
    },
    {
      "inputs": [],
      "name": "deposit",
      "outputs": [],
      "stateMutability": "payable",
      "type": "function",
      "payable": true
    },
    {
      "inputs": [],
      "name": "confirmDelivery",
      "outputs": [],
      "stateMutability": "payable",
      "type": "function",
      "payable": true
    },
    {
      "inputs": [],
      "name": "withdraw",
      "outputs": [],
      "stateMutability": "payable",
      "type": "function",
      "payable": true
    }
  ],
  "bytecode": "0x60806040523480156200001157600080fd5b506040516200142f3803806200142f83398181016040528101906200003791906200010d565b82600160006101000a81548173ffffffffffffffffffffffffffffffffffffffff021916908373ffffffffffffffffffffffffffffffffffffffff160217905550816000806101000a81548173ffffffffffffffffffffffffffffffffffffffff021916908373ffffffffffffffffffffffffffffffffffffffff1602179055508060028190555050505062000203565b600081519050620000d981620001b5565b92915050565b600081519050620000f081620001cf565b92915050565b6000815190506200010781620001e9565b92915050565b6000806000606084860312156200012357600080fd5b60006200013386828701620000c8565b93505060206200014686828701620000df565b92505060406200015986828701620000f6565b9150509250925092565b600062000170826200018b565b9050919050565b600062000184826200018b565b9050919050565b600073ffffffffffffffffffffffffffffffffffffffff82169050919050565b6000819050919050565b620001c08162000163565b8114620001cc57600080fd5b50565b620001da8162000177565b8114620001e657600080fd5b50565b620001f481620001ab565b81146200020057600080fd5b50565b61121c80620002136000396000f3fe6080604052600436106100915760003560e01c80635e10177b116100595780635e10177b146101385780637150d8ae146101425780639731fd7f1461016d578063a035b1fe14610198578063d0e30db0146101c357610091565b806308551a53146100965780630c3f6acf146100c1578063347b57c8146100ec5780633c8d1dd8146101175780633ccfd60b1461012e575b600080fd5b3480156100a257600080fd5b506100ab6101cd565b6040516100b89190610dbc565b60405180910390f35b3480156100cd57600080fd5b506100d66101f1565b6040516100e39190610df2565b60405180910390f35b3480156100f857600080fd5b50610101610204565b60405161010e9190610dd7565b60405180910390f35b34801561012357600080fd5b5061012c610217565b005b610136610522565b005b610140610747565b005b34801561014e57600080fd5b506101576109bb565b6040516101649190610da1565b60405180910390f35b34801561017957600080fd5b506101826109e1565b60405161018f9190610dd7565b60405180910390f35b3480156101a457600080fd5b506101ad6109f4565b6040516101ba9190610f2d565b60405180910390f35b6101cb6109fa565b005b60008054906101000a900473ffffffffffffffffffffffffffffffffffffffff1681565b600360009054906101000a900460ff1681565b600360029054906101000a900460ff1681565b60006003811115610251577f4e487b7100000000000000000000000000000000000000000000000000000000600052602160045260246000fd5b600360009054906101000a900460ff166003811115610299577f4e487b7100000000000000000000000000000000000000000000000000000000600052602160045260246000fd5b146102d9576040517f08c379a00000000000000000000000000000000000000000000000000000000081526004016102d090610e6d565b60405180910390fd5b600160009054906101000a900473ffffffffffffffffffffffffffffffffffffffff1673ffffffffffffffffffffffffffffffffffffffff163373ffffffffffffffffffffffffffffffffffffffff161480610380575060008054906101000a900473ffffffffffffffffffffffffffffffffffffffff1673ffffffffffffffffffffffffffffffffffffffff163373ffffffffffffffffffffffffffffffffffffffff16145b6103bf576040517f08c379a00000000000000000000000000000000000000000000000000000000081526004016103b690610e2d565b60405180910390fd5b600160009054906101000a900473ffffffffffffffffffffffffffffffffffffffff1673ffffffffffffffffffffffffffffffffffffffff163373ffffffffffffffffffffffffffffffffffffffff161415610431576001600360016101000a81548160ff0219169083151502179055505b60008054906101000a900473ffffffffffffffffffffffffffffffffffffffff1673ffffffffffffffffffffffffffffffffffffffff163373ffffffffffffffffffffffffffffffffffffffff1614156104a1576001600360026101000a81548160ff0219169083151502179055505b600360019054906101000a900460ff1680156104c95750600360029054906101000a900460ff165b15610520576001600360006101000a81548160ff0219169083600381111561051a577f4e487b7100000000000000000000000000000000000000000000000000000000600052602160045260246000fd5b02179055505b565b600160009054906101000a900473ffffffffffffffffffffffffffffffffffffffff1673ffffffffffffffffffffffffffffffffffffffff163373ffffffffffffffffffffffffffffffffffffffff16146105b2576040517f08c379a00000000000000000000000000000000000000000000000000000000081526004016105a990610e0d565b60405180910390fd5b600260038111156105ec577f4e487b7100000000000000000000000000000000000000000000000000000000600052602160045260246000fd5b600360009054906101000a900460ff166003811115610634577f4e487b7100000000000000000000000000000000000000000000000000000000600052602160045260246000fd5b14610674576040517f08c379a000000000000000000000000000000000000000000000000000000000815260040161066b90610ead565b60405180910390fd5b6000600160009054906101000a900473ffffffffffffffffffffffffffffffffffffffff1673ffffffffffffffffffffffffffffffffffffffff166002546040516106be90610d8c565b60006040518083038185875af1925050503d80600081146106fb576040519150601f19603f3d011682016040523d82523d6000602084013e610700565b606091505b5050905080610744576040517f08c379a000000000000000000000000000000000000000000000000000000000815260040161073b90610e4d565b60405180910390fd5b50565b600160009054906101000a900473ffffffffffffffffffffffffffffffffffffffff1673ffffffffffffffffffffffffffffffffffffffff163373ffffffffffffffffffffffffffffffffffffffff16146107d7576040517f08c379a00000000000000000000000000000000000000000000000000000000081526004016107ce90610e0d565b60405180910390fd5b60026003811115610811577f4e487b7100000000000000000000000000000000000000000000000000000000600052602160045260246000fd5b600360009054906101000a900460ff166003811115610859577f4e487b7100000000000000000000000000000000000000000000000000000000600052602160045260246000fd5b14610899576040517f08c379a000000000000000000000000000000000000000000000000000000000815260040161089090610ecd565b60405180910390fd5b60008060009054906101000a900473ffffffffffffffffffffffffffffffffffffffff1673ffffffffffffffffffffffffffffffffffffffff166002546040516108e290610d8c565b60006040518083038185875af1925050503d806000811461091f576040519150601f19603f3d011682016040523d82523d6000602084013e610924565b606091505b5050905080610968576040517f08c379a000000000000000000000000000000000000000000000000000000000815260040161095f90610e8d565b60405180910390fd5b60038060006101000a81548160ff021916908360038111156109b3577f4e487b7100000000000000000000000000000000000000000000000000000000600052602160045260246000fd5b021790555050565b600160009054906101000a900473ffffffffffffffffffffffffffffffffffffffff1681565b600360019054906101000a900460ff1681565b60025481565b600160009054906101000a900473ffffffffffffffffffffffffffffffffffffffff1673ffffffffffffffffffffffffffffffffffffffff163373ffffffffffffffffffffffffffffffffffffffff1614610a8a576040517f08c379a0000000000000000000000000000000000000000000000000000000008152600401610a8190610e0d565b60405180910390fd5b60016003811115610ac4577f4e487b7100000000000000000000000000000000000000000000000000000000600052602160045260246000fd5b600360009054906101000a900460ff166003811115610b0c577f4e487b7100000000000000000000000000000000000000000000000000000000600052602160045260246000fd5b14610b4c576040517f08c379a0000000000000000000000000000000000000000000000000000000008152600401610b4390610eed565b60405180910390fd5b6002543414610b90576040517f08c379a0000000000000000000000000000000000000000000000000000000008152600401610b8790610f0d565b60405180910390fd5b6002600360006101000a81548160ff02191690836003811115610bdc577f4e487b7100000000000000000000000000000000000000000000000000000000600052602160045260246000fd5b0217905550565b610bec81610f76565b82525050565b610bfb81610f64565b82525050565b610c0a81610f88565b82525050565b610c1981610fd1565b82525050565b6000610c2c602283610f53565b9150610c3782611012565b604082019050919050565b6000610c4f602b83610f53565b9150610c5a82611061565b604082019050919050565b6000610c72600f83610f53565b9150610c7d826110b0565b602082019050919050565b6000610c95601e83610f53565b9150610ca0826110d9565b602082019050919050565b6000610cb8601083610f53565b9150610cc382611102565b602082019050919050565b6000610cdb601683610f53565b9150610ce68261112b565b602082019050919050565b6000610cfe600f83610f53565b9150610d0982611154565b602082019050919050565b6000610d21600083610f48565b9150610d2c8261117d565b600082019050919050565b6000610d44601583610f53565b9150610d4f82611180565b602082019050919050565b6000610d67601b83610f53565b9150610d72826111a9565b602082019050919050565b610d8681610fc7565b82525050565b6000610d9782610d14565b9150819050919050565b6000602082019050610db66000830184610bf2565b92915050565b6000602082019050610dd16000830184610be3565b92915050565b6000602082019050610dec6000830184610c01565b92915050565b6000602082019050610e076000830184610c10565b92915050565b60006020820190508181036000830152610e2681610c1f565b9050919050565b60006020820190508181036000830152610e4681610c42565b9050919050565b60006020820190508181036000830152610e6681610c65565b9050919050565b60006020820190508181036000830152610e8681610c88565b9050919050565b60006020820190508181036000830152610ea681610cab565b9050919050565b60006020820190508181036000830152610ec681610cce565b9050919050565b60006020820190508181036000830152610ee681610cf1565b9050919050565b60006020820190508181036000830152610f0681610d37565b9050919050565b60006020820190508181036000830152610f2681610d5a565b9050919050565b6000602082019050610f426000830184610d7d565b92915050565b600081905092915050565b600082825260208201905092915050565b6000610f6f82610fa7565b9050919050565b6000610f8182610fa7565b9050919050565b60008115159050919050565b6000819050610fa2826111d2565b919050565b600073ffffffffffffffffffffffffffffffffffffffff82169050919050565b6000819050919050565b6000610fdc82610f94565b9050919050565b7f4e487b7100000000000000000000000000000000000000000000000000000000600052602160045260246000fd5b7f4f6e6c792062757965722063616e2063616c6c20746869732066756e6374696f60008201527f6e21000000000000000000000000000000000000000000000000000000000000602082015250565b7f4f6e6c79206275796572206f722073656c6c65722063616e20696e697469617460008201527f6520636f6e747261637421000000000000000000000000000000000000000000602082015250565b7f5472616e73666572206661696c65640000000000000000000000000000000000600082015250565b7f436f6e747261637420697320616c726561647920696e69746961746564210000600082015250565b7f5472616e73666572206661696c65642100000000000000000000000000000000600082015250565b7f5769746864726177206e6f7420706f737369626c652100000000000000000000600082015250565b7f43616e6e6f7420636f6e6669726d210000000000000000000000000000000000600082015250565b50565b7f4465706f736974206e6f7420706f737369626c65210000000000000000000000600082015250565b7f4465706f73697420616d6f756e74206e6f7420636f7272656374210000000000600082015250565b600481106111e3576111e2610fe3565b5b5056fea2646970667358221220d9a269ffe4ba7fea2a84ca244ac6ee84fa03ffe833b4a5e9fd8ce8259290691964736f6c63430008040033",
  "immutableReferences": {},
  "source": "// SPDX-License-Identifier: MIT\r\npragma solidity ^0.8.0;\r\n\r\ncontract Escrow {\r\n    \r\n    address payable public  seller;\r\n    address public buyer;\r\n    uint256 public price;\r\n    \r\n    enum State {\r\n        NOT_INITIATED,\r\n        AWAITING_PAYMENT,\r\n        AWAITING_CONFIRM,\r\n        COMPLETE\r\n    }\r\n    \r\n    State public currentState;\r\n    \r\n    \r\n    bool public buyerIsIn;\r\n    bool public sellerIsIn;\r\n    \r\n    modifier onlyBuyer() {\r\n        require(msg.sender == buyer, \"Only buyer can call this function!\");\r\n        _;\r\n    }\r\n    \r\n    modifier contractNotInitiated() {\r\n        require(currentState == State.NOT_INITIATED, \"Contract is already initiated!\");\r\n        _;\r\n    }\r\n\r\n    \r\n    constructor (address _buyer, address payable _seller, uint256 _price) {\r\n        buyer = _buyer;\r\n        seller = _seller;\r\n        price = _price;\r\n    }\r\n    \r\n    \r\n    function contractInit() contractNotInitiated public {\r\n        require(msg.sender == buyer || msg.sender == seller, \"Only buyer or seller can initiate contract!\");\r\n        if(msg.sender == buyer) {\r\n            buyerIsIn = true;\r\n        }\r\n        if(msg.sender == seller) {\r\n            sellerIsIn = true;\r\n        }\r\n        if(buyerIsIn && sellerIsIn) {\r\n            currentState = State.AWAITING_PAYMENT;\r\n        }\r\n    }\r\n    \r\n    \r\n     function deposit() onlyBuyer payable public {\r\n        require(currentState == State.AWAITING_PAYMENT, \"Deposit not possible!\");\r\n        require(msg.value == price, \"Deposit amount not correct!\");\r\n        currentState = State.AWAITING_CONFIRM;\r\n    }\r\n    \r\n    function confirmDelivery() onlyBuyer payable public {\r\n        require(currentState == State.AWAITING_CONFIRM, \"Cannot confirm!\");\r\n        ( bool success, ) = seller.call{value: price}(\"\");\r\n        require(success, \"Transfer failed!\");\r\n        currentState = State.COMPLETE;\r\n    }\r\n    \r\n    function withdraw() onlyBuyer payable public {\r\n        require(currentState == State.AWAITING_CONFIRM, \"Withdraw not possible!\");\r\n        ( bool success, ) = payable(buyer).call{value: price}(\"\");\r\n        require(success, \"Transfer failed\");\r\n    }\r\n    \r\n}",
  "sourcePath": "D:/solidity/escrow/src/contracts/Escrow.sol",
  "compiler": {
    "name": "solc",
    "version": "0.8.4+commit.c7e474f2.Emscripten.clang"
  },
  "schemaVersion": "3.4.1",
  "updatedAt": "2021-05-31T20:57:45.752Z",
  "networkType": "ethereum",
  "devdoc": {
    "kind": "dev",
    "methods": {},
    "version": 1
  },
  "userdoc": {
    "kind": "user",
    "methods": {},
    "version": 1
  }
}