{
  "contractName": "Escrow",
  "abi": [
    {
      "inputs": [
        {
          "internalType": "address",
          "name": "_buyer",
          "type": "address"
        },
        {
          "internalType": "address payable",
          "name": "_seller",
          "type": "address"
        },
        {
          "internalType": "uint256",
          "name": "_price",
          "type": "uint256"
        }
      ],
      "stateMutability": "nonpayable",
      "type": "constructor"
    },
    {
      "anonymous": false,
      "inputs": [
        {
          "indexed": false,
          "internalType": "address",
          "name": "buyer",
          "type": "address"
        },
        {
          "indexed": false,
          "internalType": "uint256",
          "name": "amount",
          "type": "uint256"
        },
        {
          "indexed": false,
          "internalType": "enum Escrow.State",
          "name": "currentState",
          "type": "uint8"
        }
      ],
      "name": "buyerDeposit",
      "type": "event"
    },
    {
      "anonymous": false,
      "inputs": [
        {
          "indexed": false,
          "internalType": "address",
          "name": "buyer",
          "type": "address"
        }
      ],
      "name": "buyerInitialized",
      "type": "event"
    },
    {
      "anonymous": false,
      "inputs": [
        {
          "indexed": false,
          "internalType": "enum Escrow.State",
          "name": "currentState",
          "type": "uint8"
        }
      ],
      "name": "buyerWithdraw",
      "type": "event"
    },
    {
      "anonymous": false,
      "inputs": [
        {
          "indexed": false,
          "internalType": "address",
          "name": "seller",
          "type": "address"
        },
        {
          "indexed": false,
          "internalType": "address",
          "name": "buyer",
          "type": "address"
        },
        {
          "indexed": false,
          "internalType": "uint256",
          "name": "price",
          "type": "uint256"
        },
        {
          "indexed": false,
          "internalType": "enum Escrow.State",
          "name": "currentState",
          "type": "uint8"
        }
      ],
      "name": "contractInitiated",
      "type": "event"
    },
    {
      "anonymous": false,
      "inputs": [
        {
          "indexed": false,
          "internalType": "enum Escrow.State",
          "name": "currentState",
          "type": "uint8"
        }
      ],
      "name": "deliveryConfirmed",
      "type": "event"
    },
    {
      "anonymous": false,
      "inputs": [
        {
          "indexed": false,
          "internalType": "address",
          "name": "seller",
          "type": "address"
        }
      ],
      "name": "sellerInitialized",
      "type": "event"
    },
    {
      "inputs": [],
      "name": "buyer",
      "outputs": [
        {
          "internalType": "address",
          "name": "",
          "type": "address"
        }
      ],
      "stateMutability": "view",
      "type": "function",
      "constant": true
    },
    {
      "inputs": [],
      "name": "buyerDidPay",
      "outputs": [
        {
          "internalType": "bool",
          "name": "",
          "type": "bool"
        }
      ],
      "stateMutability": "view",
      "type": "function",
      "constant": true
    },
    {
      "inputs": [],
      "name": "buyerIsIn",
      "outputs": [
        {
          "internalType": "bool",
          "name": "",
          "type": "bool"
        }
      ],
      "stateMutability": "view",
      "type": "function",
      "constant": true
    },
    {
      "inputs": [],
      "name": "currentState",
      "outputs": [
        {
          "internalType": "enum Escrow.State",
          "name": "",
          "type": "uint8"
        }
      ],
      "stateMutability": "view",
      "type": "function",
      "constant": true
    },
    {
      "inputs": [],
      "name": "price",
      "outputs": [
        {
          "internalType": "uint256",
          "name": "",
          "type": "uint256"
        }
      ],
      "stateMutability": "view",
      "type": "function",
      "constant": true
    },
    {
      "inputs": [],
      "name": "seller",
      "outputs": [
        {
          "internalType": "address payable",
          "name": "",
          "type": "address"
        }
      ],
      "stateMutability": "view",
      "type": "function",
      "constant": true
    },
    {
      "inputs": [],
      "name": "sellerIsIn",
      "outputs": [
        {
          "internalType": "bool",
          "name": "",
          "type": "bool"
        }
      ],
      "stateMutability": "view",
      "type": "function",
      "constant": true
    },
    {
      "inputs": [],
      "name": "contractInit",
      "outputs": [],
      "stateMutability": "nonpayable",
      "type": "function"
    },
    {
      "inputs": [],
      "name": "deposit",
      "outputs": [],
      "stateMutability": "payable",
      "type": "function",
      "payable": true
    },
    {
      "inputs": [],
      "name": "confirmDelivery",
      "outputs": [],
      "stateMutability": "payable",
      "type": "function",
      "payable": true
    },
    {
      "inputs": [],
      "name": "withdraw",
      "outputs": [],
      "stateMutability": "payable",
      "type": "function",
      "payable": true
    }
  ],
  "bytecode": "0x60806040523480156200001157600080fd5b50604051620018ce380380620018ce83398181016040528101906200003791906200013d565b82600160006101000a81548173ffffffffffffffffffffffffffffffffffffffff021916908373ffffffffffffffffffffffffffffffffffffffff160217905550816000806101000a81548173ffffffffffffffffffffffffffffffffffffffff021916908373ffffffffffffffffffffffffffffffffffffffff160217905550670de0b6b3a764000081620000ce919062000193565b6002819055506000600360006101000a81548160ff021916908315150217905550505050620002c3565b600081519050620001098162000275565b92915050565b60008151905062000120816200028f565b92915050565b6000815190506200013781620002a9565b92915050565b6000806000606084860312156200015357600080fd5b60006200016386828701620000f8565b935050602062000176868287016200010f565b9250506040620001898682870162000126565b9150509250925092565b6000620001a0826200023c565b9150620001ad836200023c565b9250817fffffffffffffffffffffffffffffffffffffffffffffffffffffffffffffffff0483118215151615620001e957620001e862000246565b5b828202905092915050565b600062000201826200021c565b9050919050565b600062000215826200021c565b9050919050565b600073ffffffffffffffffffffffffffffffffffffffff82169050919050565b6000819050919050565b7f4e487b7100000000000000000000000000000000000000000000000000000000600052601160045260246000fd5b6200028081620001f4565b81146200028c57600080fd5b50565b6200029a8162000208565b8114620002a657600080fd5b50565b620002b4816200023c565b8114620002c057600080fd5b50565b6115fb80620002d36000396000f3fe60806040526004361061009c5760003560e01c80635e10177b116100645780635e10177b146101435780637150d8ae1461014d5780639731fd7f14610178578063a035b1fe146101a3578063d0e30db0146101ce578063ed8517cb146101d85761009c565b806308551a53146100a15780630c3f6acf146100cc578063347b57c8146100f75780633c8d1dd8146101225780633ccfd60b14610139575b600080fd5b3480156100ad57600080fd5b506100b6610203565b6040516100c391906110e9565b60405180910390f35b3480156100d857600080fd5b506100e1610227565b6040516100ee919061119b565b60405180910390f35b34801561010357600080fd5b5061010c61023a565b6040516101199190611180565b60405180910390f35b34801561012e57600080fd5b5061013761024b565b005b610141610693565b005b61014b61096a565b005b34801561015957600080fd5b50610162610c24565b60405161016f91906110b3565b60405180910390f35b34801561018457600080fd5b5061018d610c4a565b60405161019a9190611180565b60405180910390f35b3480156101af57600080fd5b506101b8610c5d565b6040516101c591906112d6565b60405180910390f35b6101d6610c63565b005b3480156101e457600080fd5b506101ed610ed3565b6040516101fa9190611180565b60405180910390f35b60008054906101000a900473ffffffffffffffffffffffffffffffffffffffff1681565b600360019054906101000a900460ff1681565b60038054906101000a900460ff1681565b60006003811115610285577f4e487b7100000000000000000000000000000000000000000000000000000000600052602160045260246000fd5b600360019054906101000a900460ff1660038111156102cd577f4e487b7100000000000000000000000000000000000000000000000000000000600052602160045260246000fd5b1461030d576040517f08c379a000000000000000000000000000000000000000000000000000000000815260040161030490611216565b60405180910390fd5b600160009054906101000a900473ffffffffffffffffffffffffffffffffffffffff1673ffffffffffffffffffffffffffffffffffffffff163373ffffffffffffffffffffffffffffffffffffffff1614806103b4575060008054906101000a900473ffffffffffffffffffffffffffffffffffffffff1673ffffffffffffffffffffffffffffffffffffffff163373ffffffffffffffffffffffffffffffffffffffff16145b6103f3576040517f08c379a00000000000000000000000000000000000000000000000000000000081526004016103ea906111d6565b60405180910390fd5b600160009054906101000a900473ffffffffffffffffffffffffffffffffffffffff1673ffffffffffffffffffffffffffffffffffffffff163373ffffffffffffffffffffffffffffffffffffffff1614156104be576001600360026101000a81548160ff0219169083151502179055507f629ecc1b656ada2ff9a1540a1426c035115e3ea8df63e2c020e719959dfaa876600160009054906101000a900473ffffffffffffffffffffffffffffffffffffffff166040516104b591906110b3565b60405180910390a15b60008054906101000a900473ffffffffffffffffffffffffffffffffffffffff1673ffffffffffffffffffffffffffffffffffffffff163373ffffffffffffffffffffffffffffffffffffffff1614156105845760016003806101000a81548160ff0219169083151502179055507f776a4d72fdbdc4701600a1bd8c1e809f597832da89f2b7385291a7dda031cda760008054906101000a900473ffffffffffffffffffffffffffffffffffffffff1660405161057b91906110ce565b60405180910390a15b600360029054906101000a900460ff1680156105aa575060038054906101000a900460ff165b15610691576001600360016101000a81548160ff021916908360038111156105fb577f4e487b7100000000000000000000000000000000000000000000000000000000600052602160045260246000fd5b02179055507f8d60d0fdd754e92f9c22e1959afe5e905588fcdc7f961bdd15ee978a24bead8160008054906101000a900473ffffffffffffffffffffffffffffffffffffffff16600160009054906101000a900473ffffffffffffffffffffffffffffffffffffffff16600254600360019054906101000a900460ff166040516106889493929190611104565b60405180910390a15b565b600160009054906101000a900473ffffffffffffffffffffffffffffffffffffffff1673ffffffffffffffffffffffffffffffffffffffff163373ffffffffffffffffffffffffffffffffffffffff1614610723576040517f08c379a000000000000000000000000000000000000000000000000000000000815260040161071a906111b6565b60405180910390fd5b6002600381111561075d577f4e487b7100000000000000000000000000000000000000000000000000000000600052602160045260246000fd5b600360019054906101000a900460ff1660038111156107a5577f4e487b7100000000000000000000000000000000000000000000000000000000600052602160045260246000fd5b146107e5576040517f08c379a00000000000000000000000000000000000000000000000000000000081526004016107dc90611256565b60405180910390fd5b6000600160009054906101000a900473ffffffffffffffffffffffffffffffffffffffff1673ffffffffffffffffffffffffffffffffffffffff1660025460405161082f9061109e565b60006040518083038185875af1925050503d806000811461086c576040519150601f19603f3d011682016040523d82523d6000602084013e610871565b606091505b50509050806108b5576040517f08c379a00000000000000000000000000000000000000000000000000000000081526004016108ac906111f6565b60405180910390fd5b6001600360016101000a81548160ff02191690836003811115610901577f4e487b7100000000000000000000000000000000000000000000000000000000600052602160045260246000fd5b02179055506000600360006101000a81548160ff0219169083151502179055507f4f121d1404ffdfd1075f34e88cdbe9a1ef9e81c3c3e8e44dc7973a7f35a3206a600360019054906101000a900460ff1660405161095f919061119b565b60405180910390a150565b600160009054906101000a900473ffffffffffffffffffffffffffffffffffffffff1673ffffffffffffffffffffffffffffffffffffffff163373ffffffffffffffffffffffffffffffffffffffff16146109fa576040517f08c379a00000000000000000000000000000000000000000000000000000000081526004016109f1906111b6565b60405180910390fd5b60026003811115610a34577f4e487b7100000000000000000000000000000000000000000000000000000000600052602160045260246000fd5b600360019054906101000a900460ff166003811115610a7c577f4e487b7100000000000000000000000000000000000000000000000000000000600052602160045260246000fd5b14610abc576040517f08c379a0000000000000000000000000000000000000000000000000000000008152600401610ab390611276565b60405180910390fd5b60008060009054906101000a900473ffffffffffffffffffffffffffffffffffffffff1673ffffffffffffffffffffffffffffffffffffffff16600254604051610b059061109e565b60006040518083038185875af1925050503d8060008114610b42576040519150601f19603f3d011682016040523d82523d6000602084013e610b47565b606091505b5050905080610b8b576040517f08c379a0000000000000000000000000000000000000000000000000000000008152600401610b8290611236565b60405180910390fd5b60038060016101000a81548160ff02191690836003811115610bd6577f4e487b7100000000000000000000000000000000000000000000000000000000600052602160045260246000fd5b02179055507f2aabe18efcd9547bee25bf90d0410b6d4d4d23fd359b08fa3ddfd5a309f0cb44600360019054906101000a900460ff16604051610c19919061119b565b60405180910390a150565b600160009054906101000a900473ffffffffffffffffffffffffffffffffffffffff1681565b600360029054906101000a900460ff1681565b60025481565b600160009054906101000a900473ffffffffffffffffffffffffffffffffffffffff1673ffffffffffffffffffffffffffffffffffffffff163373ffffffffffffffffffffffffffffffffffffffff1614610cf3576040517f08c379a0000000000000000000000000000000000000000000000000000000008152600401610cea906111b6565b60405180910390fd5b60016003811115610d2d577f4e487b7100000000000000000000000000000000000000000000000000000000600052602160045260246000fd5b600360019054906101000a900460ff166003811115610d75577f4e487b7100000000000000000000000000000000000000000000000000000000600052602160045260246000fd5b14610db5576040517f08c379a0000000000000000000000000000000000000000000000000000000008152600401610dac90611296565b60405180910390fd5b6002543414610df9576040517f08c379a0000000000000000000000000000000000000000000000000000000008152600401610df0906112b6565b60405180910390fd5b6002600360016101000a81548160ff02191690836003811115610e45577f4e487b7100000000000000000000000000000000000000000000000000000000600052602160045260246000fd5b02179055506001600360006101000a81548160ff0219169083151502179055507fb21ab62e9f0619450164114cb53f33c8041dca767916f8404674727f72f633b6600160009054906101000a900473ffffffffffffffffffffffffffffffffffffffff1634600360019054906101000a900460ff16604051610ec993929190611149565b60405180910390a1565b600360009054906101000a900460ff1681565b610eef8161137a565b82525050565b610efe8161131f565b82525050565b610f0d8161130d565b82525050565b610f1c81611331565b82525050565b610f2b8161138c565b82525050565b6000610f3e6022836112fc565b9150610f49826113f1565b604082019050919050565b6000610f61602b836112fc565b9150610f6c82611440565b604082019050919050565b6000610f84600f836112fc565b9150610f8f8261148f565b602082019050919050565b6000610fa7601e836112fc565b9150610fb2826114b8565b602082019050919050565b6000610fca6010836112fc565b9150610fd5826114e1565b602082019050919050565b6000610fed6016836112fc565b9150610ff88261150a565b602082019050919050565b6000611010600f836112fc565b915061101b82611533565b602082019050919050565b60006110336000836112f1565b915061103e8261155c565b600082019050919050565b60006110566015836112fc565b91506110618261155f565b602082019050919050565b6000611079601b836112fc565b915061108482611588565b602082019050919050565b61109881611370565b82525050565b60006110a982611026565b9150819050919050565b60006020820190506110c86000830184610f04565b92915050565b60006020820190506110e36000830184610ee6565b92915050565b60006020820190506110fe6000830184610ef5565b92915050565b60006080820190506111196000830187610ee6565b6111266020830186610f04565b611133604083018561108f565b6111406060830184610f22565b95945050505050565b600060608201905061115e6000830186610f04565b61116b602083018561108f565b6111786040830184610f22565b949350505050565b60006020820190506111956000830184610f13565b92915050565b60006020820190506111b06000830184610f22565b92915050565b600060208201905081810360008301526111cf81610f31565b9050919050565b600060208201905081810360008301526111ef81610f54565b9050919050565b6000602082019050818103600083015261120f81610f77565b9050919050565b6000602082019050818103600083015261122f81610f9a565b9050919050565b6000602082019050818103600083015261124f81610fbd565b9050919050565b6000602082019050818103600083015261126f81610fe0565b9050919050565b6000602082019050818103600083015261128f81611003565b9050919050565b600060208201905081810360008301526112af81611049565b9050919050565b600060208201905081810360008301526112cf8161106c565b9050919050565b60006020820190506112eb600083018461108f565b92915050565b600081905092915050565b600082825260208201905092915050565b600061131882611350565b9050919050565b600061132a82611350565b9050919050565b60008115159050919050565b600081905061134b826115b1565b919050565b600073ffffffffffffffffffffffffffffffffffffffff82169050919050565b6000819050919050565b60006113858261139e565b9050919050565b60006113978261133d565b9050919050565b60006113a9826113b0565b9050919050565b60006113bb82611350565b9050919050565b7f4e487b7100000000000000000000000000000000000000000000000000000000600052602160045260246000fd5b7f4f6e6c792062757965722063616e2063616c6c20746869732066756e6374696f60008201527f6e21000000000000000000000000000000000000000000000000000000000000602082015250565b7f4f6e6c79206275796572206f722073656c6c65722063616e20696e697469617460008201527f6520636f6e747261637421000000000000000000000000000000000000000000602082015250565b7f5472616e73666572206661696c65640000000000000000000000000000000000600082015250565b7f436f6e747261637420697320616c726561647920696e69746961746564210000600082015250565b7f5472616e73666572206661696c65642100000000000000000000000000000000600082015250565b7f5769746864726177206e6f7420706f737369626c652100000000000000000000600082015250565b7f43616e6e6f7420636f6e6669726d210000000000000000000000000000000000600082015250565b50565b7f4465706f736974206e6f7420706f737369626c65210000000000000000000000600082015250565b7f4465706f73697420616d6f756e74206e6f7420636f7272656374210000000000600082015250565b600481106115c2576115c16113c2565b5b5056fea26469706673582212205f9f9aa4eab906af7910b9e9a89344cf709a5310b406f277777138c8d568982664736f6c63430008040033",
  "immutableReferences": {},
  "source": "// SPDX-License-Identifier: MIT\r\npragma solidity ^0.8.0;\r\n\r\ncontract Escrow {\r\n    \r\n    address payable public  seller;\r\n    address public buyer;\r\n    uint256 public price;\r\n    bool public buyerDidPay;\r\n    \r\n    enum State {\r\n        NOT_INITIATED,\r\n        AWAITING_PAYMENT,\r\n        AWAITING_CONFIRM,\r\n        COMPLETE\r\n    }\r\n    \r\n    State public currentState;\r\n    \r\n    \r\n    bool public buyerIsIn;\r\n    bool public sellerIsIn;\r\n    \r\n    modifier onlyBuyer() {\r\n        require(msg.sender == buyer, \"Only buyer can call this function!\");\r\n        _;\r\n    }\r\n    \r\n    modifier contractNotInitiated() {\r\n        require(currentState == State.NOT_INITIATED, \"Contract is already initiated!\");\r\n        _;\r\n    }\r\n\r\n    event sellerInitialized(address seller);\r\n    event buyerInitialized(address buyer);\r\n    event contractInitiated(address seller, address buyer, uint256 price, State currentState);\r\n    event buyerDeposit(address buyer, uint256 amount, State currentState);\r\n    event deliveryConfirmed(State currentState);\r\n    event buyerWithdraw(State currentState);\r\n    \r\n    constructor (address _buyer, address payable _seller, uint256 _price) {\r\n        buyer = _buyer;\r\n        seller = _seller;\r\n        price = _price * (10**18);\r\n        buyerDidPay = false;\r\n    }\r\n    \r\n    \r\n    function contractInit() contractNotInitiated public {\r\n        require(msg.sender == buyer || msg.sender == seller, \"Only buyer or seller can initiate contract!\");\r\n        if(msg.sender == buyer) {\r\n            buyerIsIn = true;\r\n            emit buyerInitialized(buyer);\r\n        }\r\n        if(msg.sender == seller) {\r\n            sellerIsIn = true;\r\n            emit sellerInitialized(seller);\r\n        }\r\n        if(buyerIsIn && sellerIsIn) {\r\n            currentState = State.AWAITING_PAYMENT;\r\n            emit contractInitiated(seller, buyer, price, currentState);\r\n        }\r\n    }\r\n    \r\n    \r\n     function deposit() onlyBuyer payable public {\r\n        require(currentState == State.AWAITING_PAYMENT, \"Deposit not possible!\");\r\n        require(msg.value == price, \"Deposit amount not correct!\");\r\n        currentState = State.AWAITING_CONFIRM;\r\n        buyerDidPay = true;\r\n        emit buyerDeposit(buyer, msg.value, currentState);\r\n    }\r\n    \r\n    function confirmDelivery() onlyBuyer payable public {\r\n        require(currentState == State.AWAITING_CONFIRM, \"Cannot confirm!\");\r\n        ( bool success, ) = seller.call{value: price}(\"\");\r\n        require(success, \"Transfer failed!\");\r\n        currentState = State.COMPLETE;\r\n        emit deliveryConfirmed(currentState);\r\n    }\r\n    \r\n    function withdraw() onlyBuyer payable public {\r\n        require(currentState == State.AWAITING_CONFIRM, \"Withdraw not possible!\");\r\n        ( bool success, ) = payable(buyer).call{value: price}(\"\");\r\n        require(success, \"Transfer failed\");\r\n        currentState = State.AWAITING_PAYMENT;\r\n        buyerDidPay = false;\r\n        emit buyerWithdraw(currentState);\r\n    }\r\n    \r\n}",
  "sourcePath": "D:/solidity/escrow/src/contracts/Escrow.sol",
  "compiler": {
    "name": "solc",
    "version": "0.8.4+commit.c7e474f2.Emscripten.clang"
  },
  "schemaVersion": "3.4.1",
  "updatedAt": "2021-06-07T11:27:06.841Z",
  "networkType": "ethereum",
  "devdoc": {
    "kind": "dev",
    "methods": {},
    "version": 1
  },
  "userdoc": {
    "kind": "user",
    "methods": {},
    "version": 1
  }
}